:02000002D0002C
:1040000000400D0078640D00000006000C00050162
:084010000401DB0700000000C1
:0440180000620D0035
:10401C0009480A49884208B505D0094A824202D0AB
:10402C00121A02F087F80748074A0021121A02F008
:10403C008FF8014808BD00BFD4E50320E4630D00F0
:10404C0040E6032040E60320F0E7032070B5074E5E
:10405C00074C01F02FFBA41BA4080025A54200D19E
:10406C0070BD56F8043B98470135F7E7B8630D006F
:10407C00DC630D0000F036B808B500F047F8BDE879
:10408C00084001F0D9BA00F0D3BA00F0D1BA00F070
:10409C00D7BA0078B0FA80F040097047012303705A
:1040AC00704710B5036804469B689847A368013BAA
:1040BC00A3602BB923682046DB68BDE81040184785
:1040CC0010BD000013B5064B1B788DF80030002294
:1040DC003C23044600F06CFC204602B010BD00BF2F
:1040EC0044E6032010B5084C01F01CFA4FF41651AD
:1040FC0001F00CFA204600F092F820462121BDE890
:10410C00104000F0C8B800BF48E6032070B52DED94
:10411C00048B3148DFED318A314C82B000F0D0F89D
:10412C002D4800F087F8B0EE408A01F0FBF92D49DC
:10413C0000F0BCFF01F0F6F90221B0EE480A01F0E4
:10414C00BAF8B0EE689AB4EEE88AF1EE10FA19DD1E
:10415C0023786BB168462449FFF7B4FF019828B166
:10416C004368013B43600BB9FFF79BFF00232370AF
:10417C004FF47A7000F084FA174800F05BF8B0EE58
:10418C00408AE0E70123194E134D2370B4EEC98A1F
:10419C00F1EE10FA19D523786BB168463146FFF76A
:1041AC0091FF019828B14368013B43600BB9FFF7BD
:1041BC0078FF002323704FF47A7000F061FA2846E0
:1041CC0000F038F8B0EE408AE0E70123237002B02B
:1041DC00BDEC048B70BD00BF48E603200000FA461E
:1041EC00D4E5032014620D0022620D002A620D003A
:1041FC0008B5064B00221A7001F0A6FABDE808407B
:10420C0002462321024800F005B800BF44E6032013
:10421C0048E603204260112241700270704710B5CD
:10422C000446406800F0F3FD10B9606800F0B2FD80
:10423C00012010BD70B505464178406800F0DCFDEA
:10424C0069786868022200F0D4FD686803685B69CD
:10425C0098470646686803685B699847044668682F
:10426C0000F0D2FD44EA062084B207EE904AB8EE84
:10427C00670ADFED027A80EE270A70BD9A99993FA2
:10428C000378232B05D0132B0CBF1820B42000F07F
:10429C00F7B91820FBE738B504460D46417840685D
:1042AC0000F0AAFD6068036829469B68984760681F
:1042BC0000F0AAFD25702046BDE83840FFF7E0BFAE
:1042CC0010B50378A3F12002012A044601D9232B4F
:1042DC0010D16178606800F08FFD60682178036808
:1042EC009B689847606800F08FFD2046BDE8104041
:1042FC00FFF7C6BF10BD000008B5024B1B685B6C16
:10430C00019308BD4802030008B5024B1B689B6C67
:10431C00019308BD4802030008B5024B1B685B689B
:10432C00019308BD1802030008B5024B1B685B69BA
:10433C00019308BD1802030008B5024B1B68DB682B
:10434C00019308BD2802030008B5024B1B689B694A
:10435C00019308BD2802030008B5024B1B68DB69FA
:10436C00019308BD2802030008B5024B1B681B6AA9
:10437C00019308BD2802030008B5024B1B685B6A59
:10438C00019308BD2802030008B5024B1B689B6A09
:10439C00019308BD2802030008B5024B1B68DB6AB9
:1043AC00019308BD2802030008B5024B1B681B6B68
:1043BC00019308BD2802030008B5024B1B685B6B18
:1043CC00019308BD2802030008B5024B1B681B6C47
:1043DC00019308BD2802030008B5024B1B681B6D36
:1043EC00019308BD2802030008B5024B1B685B69EA
:1043FC00019308BD6402030008B5024B1B689B685F
:10440C00019308BD6802030008B5024B1B68DB680A
:10441C00019308BD6802030008B5024B1B681B68BA
:10442C00019308BD3C02030008B5024B1B68DB6816
:10443C00019308BD3C02030008B5024B1B681B69C5
:10444C00019308BD3C02030008B5024B1B685B6975
:10445C00019308BD3C02030008B5024B1B689B6925
:10446C00019308BD3C02030008B5024B1B68DB69D5
:10447C00019308BD3C02030008B5024B1B689B6A04
:10448C00019308BD3C02030008B5024B1B681B6876
:10449C00019308BD4C02030008B5024B1B685B6816
:1044AC00019308BD4C02030008B5024B1B681B6945
:1044BC00019308BD4C02030008B5024B1B685B69F5
:1044CC00019308BD4C02030008B5024B1B689B69A5
:1044DC00019308BD4C02030008B5024B1B68DB6955
:1044EC00019308BD4C02030008B5024B1B681B6A04
:1044FC00019308BD4C02030008B5024B1B685B68B6
:10450C00019308BD2002030008B5024B1B685B69D0
:10451C00019308BD2002030008B5024B1B68DB6C3D
:10452C00019308BD2002030008B5024B1B685B6DAC
:10453C00019308BD2002030008B5034B1B68D3F898
:10454C008830019308BD00002002030008B5034B1E
:10455C001B68D3F89430019308BD000020020300BF
:10456C0008B5024B1B685B69019308BD440203004C
:10457C0008B5024B1B681B6A019308BD440203007B
:10458C0008B5024B1B68DB6B019308BD44020300AA
:10459C0008B5024B1B685B68019308BD4002030021
:1045AC0008B5024B1B689B68019308BD40020300D1
:1045BC0008B5024B1B68DB68019308BD4002030081
:1045CC0008B5024B1B681B69019308BD4002030030
:1045DC0008B5024B1B685B69019308BD40020300E0
:1045EC0008B5024B1B689B69019308BD4002030090
:1045FC0008B5024B1B68DB69019308BD4002030040
:10460C0008B5024B1B681B6A019308BD40020300EE
:10461C0008B5024B1B681B6B019308BD40020300DD
:10462C0008B5024B1B685B6B019308BD400203008D
:10463C0008B5024B1B681B68019308BD1C020300E4
:10464C0008B5024B1B685B68019308BD1C02030094
:10465C0008B5024B1B68DB6A019308BD1C02030002
:10466C0008B5024B1B681B6B019308BD1C020300B1
:10467C0008B5024B1B685B6C019308BD1C02030060
:10468C000021FFF741BF10B5836804460BB901F058
:10469C008CF8C3689847A3681BB1032221462046B7
:1046AC00984720461021BDE8104001F07AB810B5AB
:1046BC00036804469B689847A368013BA3602BB929
:1046CC0023682046DB68BDE81040184710BD10B5C4
:1046DC000446006808B1FFF717FE204610BD0B68B2
:1046EC00036013B15A6801325A60704710B5044622
:1046FC00006828B14368013B43600BB9FFF7D7FF53
:10470C00204610BD10B5064C002320462360FFF751
:10471C00F3FD2046034A0449BDE8104001F03CB8C3
:10472C0050E6032040E60320DB460D0070470020D6
:10473C00704710B51021044601F033F8204610BD27
:10474C0008B5FFF7F6FF08BD10B58368044613B132
:10475C00032201469847204610BD30B500224FF683
:10476C009C74026084808D888C800C6885800460C9
:10477C000A6030BD10B504460068FFF761FF2046A3
:10478C0010BD38B5C468F4B12378022B03D104F101
:10479C000C00FFF7EFFF656835B12846FFF7D4FF33
:1047AC001021284600F0FDFFA56835B12846FFF71B
:1047BC00CBFF1021284600F0F4FF20461421BDE861
:1047CC00384000F0EEBF38BD73B50E46044656F8BF
:1047DC00043B00930D4601A83146FFF780FF019A78
:1047EC00009B6260236001A8002301930093FFF7F4
:1047FC007DFF3046FFF77AFF2846082100F0D1FFF5
:10480C00204602B070BD13B50B460246D0E900013C
:10481C006C4684E8030093E8030082E8030094E804
:10482C00030083E8030002B010BD826810B50AB91A
:10483C0000F0BBFFBDE81040C368184708B500681E
:10484C0000F11001FFF7F1FF08BD826810B50AB93D
:10485C0000F0ABFFBDE81040C368184708B500680E
:10486C0000F11001FFF7F1FF08BD000038B500237F
:10487C000446036010200D46FFF705FC28B1012308
:10488C00C0E90133024B0360C5602060204638BD8F
:10489C0038620D0038B5002383608B6804460D46E2
:1048AC002BB102229847EB68E360AB68A36020460B
:1048BC0038BD0000F0B589B004686846FFF74DFFBD
:1048CC004FF00203D4E84F2F002A03D1C4E8413F34
:1048DC000029F7D125D104F10C0569462846FFF7CC
:1048EC003CFFBFF35B8F01236370002004F10803CE
:1048FC00BFF35B8F53E8006F43E80002002AF9D145
:10490C00BFF35B8F6EB1FFF707FE78B129463046D7
:10491C00FFF78BFF3046FFF717FF1021304600F0F2
:10492C0040FF6846FFF726FF09B0F0BD314602A8EC
:10493C00FFF7B0FFE068B4F9105008B101F034FC97
:10494C0006901020ADF81C50FFF79DFB0546E8B112
:10495C00002787601820FFF796FB044688B10146B4
:10496C00876002A8FFF74FFF049BA268A360059B1A
:10497C00049206A9E268E36004F110000592FFF7C7
:10498C00ECFE084BEB60084B2C60AB6006A8FFF705
:10499C00F1FE02A8FFF7D8FE002229460348FFF7D4
:1049AC00C3FDB7E749480D00E14A0D0093460D00E1
:1049BC002DE9F0478AB005469DF848900C461746FD
:1049CC009846FFF7CDFD07AE824638BB4FF62E73E7
:1049DC00059005A93046ADF81830FFF7BEFE14203F
:1049EC00FFF751FB044648B1022303700123C0E9D1
:1049FC0001AA437031460C30FFF7AFFE2846214622
:104A0C0040F8044BFFF732FF3046FFF7B3FE05A822
:104A1C00FFF7B0FE28460AB0BDE8F0870C234FF034
:104A2C00000A1420CDE908AA0793FFF72CFB0146D6
:104A3C0028B1C0E901AA80F800A080F801A004A860
:104A4C000391FFF713FF224B08930820FFF71BFB82
:104A5C00824628B1039B40F8043B04A9FFF73FFEB4
:104A6C0000965FFA89F3424639462046CDF824A0D9
:104A7C00FFF77EFDB8B9039B5B7803F0FF0293B997
:104A8C004FF69C7305A903A80592ADF81830FFF7F3
:104A9C0011FF05A8FFF76EFE05A80999FFF794FE14
:104AAC0006A8FFF723FE039B059304A906A8FFF7AE
:104ABC0016FE059B069A2B606A60002306A80693D7
:104ACC000593FFF713FE04A8FFF710FEA2E700BF43
:104ADC00A54B0D00022AF8B5054607D0032A18D0BD
:104AEC00012A01D10B6803600020F8BD18200E6864
:104AFC00FFF7C9FA044650B13146FFF7CBFE3069D7
:104B0C00B6F9147008B101F04FFB2061A7822C603C
:104B1C00EAE70468002CE7D004F11000FFF72AFE46
:104B2C002046FFF711FE1821204600F03AFEDBE785
:104B3C0038B5002383608B6804460D462BB10222E6
:104B4C009847EB68E360AB68A360204638BD022A47
:104B5C0070B5044607D0032A12D0012A01D10B6884
:104B6C000360002070BD14200E68FFF78CFA054618
:104B7C0020B13146FFF7DCFF337C2B742560F0E766
:104B8C000468002CEDD02046FFF7DEFD14212046F2
:104B9C0000F007FEE5E70000F0B589B004460D46CD
:104BAC0001A81146FFF710FEA4B124B21DB128468E
:104BBC0001F0FAFA054601A803A90395ADF81040D7
:104BCC00FFF778FE03A8FFF7D5FD02A8FFF78EFDCF
:104BDC0009B0F0BD019D0123D5E84F2F002A03D168
:104BEC00C5E8413F0029F7D1EFD12B73BFF35B8FA1
:104BFC006B702B1DBFF35B8F53E8006F43E80042D3
:104C0C00002AF9D1BFF35B8F002EDED02046FFF7D0
:104C1C0083FC074660B105F10C013046FFF715FE29
:104C2C003046FFF791FD1021304600F0BAFDCCE77D
:104C3C00314603A8FFF77CFF2B7B8DF81C3010202E
:104C4C00FFF721FA0546D0B187601420FFF71BFA55
:104C5C00044678B18760014603A8FFF7D4FD059B95
:104C6C00A268A360069B0592E268E3609DF81C3085
:104C7C0006922374064BEB60064B2C60AB6003A8CA
:104C8C00FFF762FD002229460348FFF74DFCC7E7FA
:104C9C0069480D005B4B0D0093460D0000224068E7
:104CAC001146FFF7ADBC002240681146FFF7B8BCB7
:104CBC0040680022FFF7ACBC4068002281F0010183
:104CCC00FFF796BC002340681A461946FFF788BCCC
:104CDC00002340681A461946FFF77ABC0022406848
:104CEC001146FFF76DBC002240681146FFF758BC17
:104CFC00406800220221FFF75BBC002340681A4683
:104D0C00FFF746BC024B03225A60024A1A607047F6
:104D1C0054E6032054620D007047F8B5064615465C
:104D2C000C468F18BC4206D0336814F8011B9B68E4
:104D3C0030469847F6E72846F8BD007C0022FFF77E
:104D4C0013BB007C0021FFF717BB007C0021FFF791
:104D5C001BBB007C0021FFF71FBB007C0021FFF771
:104D6C0023BB10B51421044600F01BFD204610BDDA
:104D7C0010B54FF47A73044608460021C4E90113B8
:104D8C00034B236020741146FFF71EFB204610BD19
:104D9C0088620D000023007C1A461946FFF7CCBA36
:104DAC007FB500221423CDE90122ADF804300B7835
:104DBC008DF808304B680393CB680493007C0B7A16
:104DCC00059301A9FFF708FB07B05DF804FB1FB5BD
:104DDC00003B8DF800104FF06401039118BF0123C4
:104DEC00694601928DF80830FFF7DAFF05B05DF8DF
:104DFC0004FB0123FFF7EBBF007C0022FFF7A4BAF2
:104E0C00007C0022FFF7A8BA0121FFF7F9BF007C54
:104E1C000021FFF7D1BA704710B51821044600F0F5
:104E2C00C0FC204610BDF0B5037D062B8DB00E46A0
:104E3C0000F104074FF0000412D000F1080515F83A
:104E4C00011D0A22304600F044F9AF42044419D047
:104E5C00002CF4D02E21304600F02CF90444EEE75F
:104E6C002F236A4639460A208DF80040FFF7BCFA1A
:104E7C00684601F0B6F933680246DB68694630468D
:104E8C009847044620460DB0F0BD000010B5054B08
:104E9C000446112240F8043B002101F059F9204648
:104EAC0010BD00BFB0620D000346074A10B543F8B1
:104EBC00042B01F1100251F8044B43F8044B9142BE
:104ECC00F9D10A781A7010BDB0620D0010B59DF8BA
:104EDC00084044EA032343EA024242EA0161042304
:104EEC004160037510BD13B5CB7800938B784A786D
:104EFC000978FFF7EBFF02B010BD0000014B024A2E
:104F0C001A6070475CE60320BC620D000023406809
:104F1C001A46FFF73DBB406800220221FFF748BB51
:104F2C00002240681146FFF73BBB00224068114647
:104F3C00FFF746BB002340681A461946FFF748BBEB
:104F4C00002340681A461946FFF74ABB4068002206
:104F5C0081F00101FFF74CBB40680022FFF758BB02
:104F6C00002240681146FFF75BBB002240681146E7
:104F7C00FFF746BB2DE9F043002495B016460D46CD
:104F8C000746FFF783FF214618220EA8009401F074
:104F9C00DFF84023CDE90C3421466B460CAA304691
:104FAC00FFF732FA0446002846D102460121686810
:104FBC00FFF706FB0221804622466868FFF700FBDC
:104FCC00009E81462146002E36D0002934D17368CC
:104FDC00022B03D00A2B0BD0F669F4E7B8F1000FC3
:104FEC0004D0716938460431FFF77DFF4146F3E781
:104FFC00B9F1000F01D14946EEE77469102201A8FE
:10500C0001F0A6F806238DF8143001AD04F1080365
:10501C001834186859682A4603C20833A342154647
:10502C00F7D101A906A807ADFFF73EFF0FCD3C1D38
:10503C000FC42B682370DEE70098FFF7DDF93846C4
:10504C0015B0BDE8F0830000024B034A1A60002241
:10505C005A60704760E60320C8620D00F8B506463A
:10506C000D468F180024BD420CD0336815F8011B77
:10507C009B6830469847031E01DB1C44F3E7002C69
:10508C0008BF1C462046F8BD13B50446084659B166
:10509C00019101F0A6F823680199DB6802462046CD
:1050AC0002B0BDE81040184702B010BD08B5FFF7BC
:1050BC00EBFF08BD03689B68184738B50D21054602
:1050CC00FFF7F8FF0A2104462846FFF7F3FF2044B8
:1050DC0038BD30B58BB000238DF82430012A98BF31
:1050EC000A2209AC0D46B1FBF2F101FB125303F09D
:1050FC00FF03092B94BF30333733DBB2AA4204F8D9
:10510C00013DEFD92146FFF7BFFF0BB030BD0000CA
:10511C002DE9F74F55EC104B06460F4610EE102AB2
:10512C0010EE100A2B46294600F098FF40B1534967
:10513C003046FFF7A9FF8246504603B0BDE8F08F1A
:10514C0025F000494E4B4FF0FF322046494600F007
:10515C0085FF48B94A4B4FF0FF322046494600F0D4
:10516C005FFF08B94749E3E7474B4FF060422046E1
:10517C00294600F069FF08B14449D9E7444B4FF088
:10518C0060422046294600F041FF0028F4D100225D
:10519C0000232046294600F039FFD0B12D2130469E
:1051AC00FFF788FF05F1004382461D463949DFF8B9
:1051BC00EC904FF0000B00204FF000085FFA8BF3DF
:1051CC009F4208D942464B4600F0D8FD0BF1010B2B
:1051DC00F4E78246EAE722462B4600F0EFFA0D464A
:1051EC00044600F079FF804600F024FC02460B4692
:1051FC002046294600F0E0FA0A2204460D463046C5
:10520C004146FFF766FF824427B123493046FFF73A
:10521C003BFF8244DFF884904FF00008013FFFB25F
:10522C00FF2F89D042464B462046294600F07CFC95
:10523C0004460D4600F028FFB0F1000B1ADA2D21C0
:10524C003046FFF737FFCBF1000103460A22304608
:10525C000193FFF73EFF019B18448244584600F02F
:10526C00F9FB02460B462046294600F0A5FA0446F7
:10527C000D46D3E759460023E8E700BFF4620D0062
:10528C00FFFFEF7FF8620D00FFFFEF41FC620D00A6
:10529C00FFFFEFC10000E03F00630D000000244061
:1052AC0038B5C9B20546FFF733FF04462846FFF769
:1052BC0004FF204438BD38B5044610EE100A0D46E4
:1052CC0000F0DAFB41EC100B29462046BDE83840D3
:1052DC00FFF7E6BF10B50446FFF736FA204610BDBF
:1052EC000348044A04490023836000F055BA00BF08
:1052FC0068E6032040E60320E1520D0010B5044699
:10530C00006818B1FFF79CF90023236010BD10B59D
:10531C000446FFF7F3FF204610BD000010B5094B03
:10532C00094C022200201A60084B2060A080A0715A
:10533C00A360FFF7E1F82046054A0649BDE8104096
:10534C0000F02ABA84E6032078E603200000FFFF71
:10535C0040E603201B530D00024B1A68024B1A60E7
:10536C00704700BFD8E5032088E6032070474174DE
:10537C00704708B5007CFFF77FF820EAE07008BDA5
:10538C0008B5007CFFF758F820EAE07008BD08B5B6
:10539C00007CFFF761F840EAE07008BD08B5007CBE
:1053AC00FFF752F840EAE07008BD007CFFF75CB8EC
:1053BC0037B5457C04462DB1207C03B0BDE83040A8
:1053CC00FFF732B8007C0191FFF756F800280199DD
:1053DC00F2DC284603B030BD10B51421044600F0B1
:1053EC00E0F9204610BD000010B54FF0000C04464B
:1053FC00084611464FF47A72C4E901C2044A22608D
:10540C000122207462741A46FFF706F8204610BD7C
:10541C0028630D0013B50E4C2178BFF35B8F11F090
:10542C00010112D120460191FEF733FE019960B1C2
:10543C00084A094B0948FFF7D7FF2046FEF72EFE16
:10544C00074A0849054800F0A7F9044802B010BD06
:10545C008CE6032090E6032014E7032098E7032052
:10546C0040E6032079530D0041747047704708B52E
:10547C000021007CFFF728F840EAE07008BD08B571
:10548C000121007CFFF720F840EAE07008BD08B568
:10549C00007CFFF711F820EAE07008BD08B5007C2D
:1054AC00FFF702F820EAE07008BD13B50446007C53
:1054BC000191FFF701F80028019901DC607C20B113
:1054CC00207CFFF709F820EAE07002B010BD007CE8
:1054DC00FFF70AB810B51421044600F062F9204613
:1054EC0010BD000010B54FF47A7304460846002135
:1054FC00C4E90113044B2360012320746374114627
:10550C00FEF7C2FF204610BD58630D00007C002240
:10551C00FEF7C2BF10B514220446002100F018FE9D
:10552C00204610BD10B5104C88B003A8FFF7F2FF51
:10553C002178BFF35B8F11F0010111D1204601914D
:10554C00FEF7A7FD019958B103AA0848FFF7CAFF57
:10555C002046FEF7A3FD064A0649044800F01CF954
:10556C00024808B010BD00BFACE70320B0E7032031
:10557C0040E6032079540D00002240681146FFF7E5
:10558C001FB8002240681146FFF73AB80022406865
:10559C001146FFF745B840680022FFF739B840685C
:1055AC00002281F00101FFF723B8002340681A465E
:1055BC001946FFF715B8002340681A461946FFF73D
:1055CC0007B8002240681146FEF7EABF4068002287
:1055DC000221FEF7EDBF002340681A46FEF7D8BF44
:1055EC00024B04225A60024A1A607047C4E7032037
:1055FC0088630D00014B1860704700BFDCE5032089
:10560C0008B50B4B43B1FFF78DFF03681B69984737
:10561C00002801DDAFF30080064B43B1FFF7FAFE23
:10562C0003681B699847002801DDAFF3008008BDB3
:10563C00000000000000000008B5FFF7E1FFFEF7D6
:10564C0073FE014B186008BDD4E703200248034ADF
:10565C000349121A00F06EBD00F4032004F4032079
:10566C00E0630D0007B5002300931A466FF0770135
:10567C00FEF76CFF03B05DF804FB000007B5438830
:10568C000A2B08D0502B0BD1094B1B684BB103B024
:10569C005DF804EB1847FFF7E5FF03B05DF804FB7A
:1056AC00002300931A466FF07701FEF74FFFF4E7E3
:1056BC00D0E7032038B5124C1248134D0021FEF7E9
:1056CC00D7FF2368AB42114B0CBF012200221A708A
:1056DC0002D0FFF7BBFF2560FEF71EFE044600F06C
:1056EC003FFD0B4B13B12046AFF30080002108485F
:1056FC00FEF746FFBDE8384006480021FEF71CBF08
:10570C0000F4032001560D001E1C279ACCE7032041
:10571C000000000089560D0038B500232025438079
:10572C00142304460380856005610649284600F071
:10573C003AF804496060284600F035F8E0602046ED
:10574C0038BD00BFB4630D0030B50F4D2978BFF3E1
:10575C005B8F11F0010487B013D12846FEF799FC3A
:10576C0078B101A8FFF7D8FF01AA21460748FFF737
:10577C00FFFA2846FEF792FC054A0649034800F05A
:10578C000BF8024807B030BDD8E70320DCE7032054
:10579C0040E60320254D0D000B460146184600F04F
:1057AC00BBBCFEF774BCFEF770BC08B5FEF750FF2F
:1057BC0081F0004102E000BF83F0004330B54FEAB6
:1057CC0041044FEA430594EA050F08BF90EA020F23
:1057DC001FBF54EA000C55EA020C7FEA645C7FEAB6
:1057EC00655C00F0E2804FEA5454D4EB5555B8BFD9
:1057FC006D420CDD2C4480EA020281EA030382EA4A
:10580C00000083EA010180EA020281EA0303362DDB
:10581C0088BF30BD11F0004F4FEA01314FF4801CAE
:10582C004CEA113102D0404261EB410113F0004FC0
:10583C004FEA03334CEA133302D0524263EB430377
:10584C0094EA050F00F0A780A4F10104D5F1200E15
:10585C000DDB02FA0EFC22FA05F2801841F1000170
:10586C0003FA0EF2801843FA05F359410EE0A5F144
:10587C0020050EF1200E012A03FA0EFC28BF4CF075
:10588C00020C43FA05F3C01851EBE37101F000452B
:10589C0007D54FF0000EDCF1000C7EEB00006EEB38
:1058AC000101B1F5801F1BD3B1F5001F0CD34908C2
:1058BC005FEA30004FEA3C0C04F101044FEA445219
:1058CC0012F5800F80F09A80BCF1004F08BF5FEAA0
:1058DC00500C50F1000041EB045141EA050130BD80
:1058EC005FEA4C0C404141EB0101013C28BFB1F592
:1058FC00801FE9D291F0000F04BF01460020B1FADD
:10590C0081F308BF2033A3F10B03B3F120020CDAAF
:10591C000C3208DD02F1140CC2F10C0201FA0CF08D
:10592C0021FA02F10CE002F11402D8BFC2F1200CF2
:10593C0001FA02F120FA0CFCDCBF41EA0C019040A8
:10594C00E41AA2BF01EB0451294330BD6FEA0404F1
:10595C001F3C1CDA0C340EDC04F11404C4F12002DC
:10596C0020FA04F001FA02F340EA030021FA04F3EE
:10597C0045EA030130BDC4F10C04C4F1200220FA45
:10598C0002F001FA04F340EA0300294630BD21FA83
:10599C0004F0294630BD94F0000F83F4801306BF49
:1059AC0081F480110134013D4EE77FEA645C18BF3D
:1059BC007FEA655C29D094EA050F08BF90EA020FD4
:1059CC0005D054EA000C04BF1946104630BD91EACC
:1059DC00030F1EBF0021002030BD5FEA545C05D1CF
:1059EC004000494128BF41F0004130BD14F580040E
:1059FC003CBF01F5801130BD01F0004545F0FE4182
:105A0C0041F470014FF0000030BD7FEA645C1ABFB6
:105A1C00194610467FEA655C1CBF0B46024650EAED
:105A2C00013406BF52EA033591EA030F41F4002119
:105A3C0030BD00BF90F0000F04BF0021704730B59F
:105A4C004FF4806404F132044FF000054FF0000174
:105A5C0050E700BF90F0000F04BF0021704730B535
:105A6C004FF4806404F1320410F0004548BF40420A
:105A7C004FF000013EE700BF42004FEAE2014FEA5F
:105A8C0031014FEA02701FBF12F07F4393F07F4F3A
:105A9C0081F06051704732F07F4208BF704793F03D
:105AAC007F4F04BF41F40021704730B54FF4607450
:105ABC0001F0004521F000411CE700BF50EA010253
:105ACC0008BF704730B54FF000050AE050EA0102FC
:105ADC0008BF704730B511F0004502D5404261EB6C
:105AEC0041014FF4806404F132045FEA915C3FF4AD
:105AFC00D8AE4FF003025FEADC0C18BF03325FEA4A
:105B0C00DC0C18BF033202EBDC02C2F1200300FAFA
:105B1C0003FC20FA02F001FA03FE40EA0E0021FA1F
:105B2C0002F11444BDE600BF70B54FF0FF0C4CF40D
:105B3C00E06C1CEA11541DBF1CEA135594EA0C0FBF
:105B4C0095EA0C0F00F0DEF82C4481EA030621EAFA
:105B5C004C5123EA4C5350EA013518BF52EA033535
:105B6C0041F4801143F4801338D0A0FB02CE4FF0E7
:105B7C000005E1FB02E506F00042E0FB03E54FF017
:105B8C000006E1FB03569CF0000F18BF4EF0010E0F
:105B9C00A4F1FF04B6F5007F64F5407404D25FEA0B
:105BAC004E0E6D4146EB060642EAC62141EA5551BE
:105BBC004FEAC52040EA5E504FEACE2EB4F1FD0C00
:105BCC0088BFBCF5E06F1ED8BEF1004F08BF5FEA7E
:105BDC00500E50F1000041EB045170BD06F0004630
:105BEC0046EA010140EA020081EA0301B4EB5C04DD
:105BFC00C2BFD4EB0C0541EA045170BD41F48011D5
:105C0C004FF0000E013C00F3AB8014F1360FDEBFF9
:105C1C00002001F0004170BDC4F10004203C35DAD5
:105C2C000C341BDC04F11404C4F1200500FA05F358
:105C3C0020FA04F001FA05F240EA020001F00042F9
:105C4C0021F0004110EBD37021FA04F642EB06016F
:105C5C005EEA430E08BF20EAD37070BDC4F10C0499
:105C6C00C4F1200500FA04F320FA05F001FA04F25D
:105C7C0040EA020001F0004110EBD37041F1000149
:105C8C005EEA430E08BF20EAD37070BDC4F1200554
:105C9C0000FA05F24EEA020E20FA04F301FA05F2BC
:105CAC0043EA020321FA04F001F0004121FA04F264
:105CBC0020EA020000EBD3705EEA430E08BF20EA34
:105CCC00D37070BD94F0000F0FD101F0004640006E
:105CDC0041EB010111F4801F08BF013CF7D041EAF0
:105CEC00060195F0000F18BF704703F000465200F4
:105CFC0043EB030313F4801F08BF013DF7D043EAC5
:105D0C000603704794EA0C0F0CEA135518BF95EA7A
:105D1C000C0F0CD050EA410618BF52EA4306D1D101
:105D2C0081EA030101F000414FF0000070BD50EA20
:105D3C00410606BF1046194652EA430619D094EAAA
:105D4C000C0F02D150EA013613D195EA0C0F05D194
:105D5C0052EA03361CBF104619460AD181EA0301E8
:105D6C0001F0004141F0FE4141F470014FF00000A0
:105D7C0070BD41F0FE4141F4780170BD70B54FF03B
:105D8C00FF0C4CF4E06C1CEA11541DBF1CEA1355BB
:105D9C0094EA0C0F95EA0C0F00F0A7F8A4EB05049D
:105DAC0081EA030E52EA03354FEA013100F0888094
:105DBC004FEA03334FF0805545EA131343EA12635D
:105DCC004FEA022245EA111545EA10654FEA002612
:105DDC000EF000419D4208BF964244F1FD0404F5CB
:105DEC00407402D25B084FEA3202B61A65EB030527
:105DFC005B084FEA32024FF480104FF4002CB6EBE4
:105E0C00020E75EB030E22BFB61A754640EA0C0063
:105E1C005B084FEA3202B6EB020E75EB030E22BFA3
:105E2C00B61A754640EA5C005B084FEA3202B6EBE4
:105E3C00020E75EB030E22BFB61A754640EA9C00A3
:105E4C005B084FEA3202B6EB020E75EB030E22BF73
:105E5C00B61A754640EADC0055EA060E18D04FEA31
:105E6C00051545EA16754FEA06164FEAC30343EAD1
:105E7C0052734FEAC2025FEA1C1CC0D111F4801F9E
:105E8C000BD141EA00014FF000004FF0004CB6E797
:105E9C0011F4801F04BF01430020B4F1FD0C88BF36
:105EAC00BCF5E06F3FF6AFAEB5EB030C04BFB6EB41
:105EBC00020C5FEA500C50F1000041EB045170BD34
:105ECC000EF0004E4EEA113114EB5C04C2BFD4EB61
:105EDC000C0541EA045170BD41F480114FF0000EE5
:105EEC00013C90E645EA060E8DE60CEA135594EA61
:105EFC000C0F08BF95EA0C0F3FF43BAF94EA0C0F64
:105F0C000AD150EA01347FF434AF95EA0C0F7FF4D8
:105F1C0025AF104619462CE795EA0C0F06D152EA2C
:105F2C0003353FF4FDAE1046194622E750EA410610
:105F3C0018BF52EA43067FF4C5AE50EA41047FF421
:105F4C000DAF52EA43057FF4EBAE12E74FF0FF3C86
:105F5C0006E000BF4FF0010C02E000BF4FF0010C57
:105F6C004DF804CD4FEA410C7FEA6C5C4FEA430CD0
:105F7C0018BF7FEA6C5C1BD001B050EA410C0CBF1F
:105F8C0052EA430C91EA030F02BF90EA020F002081
:105F9C00704710F1000F91EA030F58BF994208BFE8
:105FAC0090422CBFD8176FEAE37040F001007047A5
:105FBC004FEA410C7FEA6C5C02D150EA013C07D1FC
:105FCC004FEA430C7FEA6C5CD6D152EA033CD3D047
:105FDC005DF8040B704700BF8446104662468C4641
:105FEC001946634600E000BF01B5FFF7B7FF002874
:105FFC0048BF10F1000F01BD4DF808EDFFF7F4FF9D
:10600C000CBF012000205DF808FB00BF4DF808ED27
:10601C00FFF7EAFF34BF012000205DF808FB00BF4A
:10602C004DF808EDFFF7E0FF94BF012000205DF86C
:10603C0008FB00BF4DF808EDFFF7CEFF94BF012021
:10604C0000205DF808FB00BF4DF808EDFFF7C4FF1A
:10605C0034BF012000205DF808FB00BF4FEA410C63
:10606C007FEA6C5C02D150EA013C0AD14FEA430C46
:10607C007FEA6C5C02D152EA033C02D14FF0000083
:10608C0070474FF0010070474FEA410212F50012C1
:10609C0015D211D56FF47873B3EB625212D94FEA63
:1060AC00C12343F0004343EA505311F0004F23FA4D
:1060BC0002F018BF404270474FF00000704750EAA2
:1060CC00013005D111F0004008BF6FF0004070475F
:1060DC004FF00000704700BF4A0011D212F50012B9
:1060EC0011D20DD56FF47873B3EB62520ED44FEA24
:1060FC00C12343F0004343EA505323FA02F07047A4
:10610C004FF00000704750EA013002D14FF0FF30E1
:10611C0070474FF00000704710B5054C13462CB17A
:10612C000A4601460220AFF3008010BD2046FCE772
:10613C00000000000A44914200F1FF3300D1704787
:10614C0010B511F8014B03F8014F9142F9D110BD74
:10615C0002440346934200D1704703F8011BF9E750
:10616C0038B50D4B1D68AB6B04467BB91820FEF798
:10617C005FFA0A4A0A4BA863C0E90023094B836003
:10618C000B23838101220023C0E90423AB6B002283
:10619C001C615A6138BD00BFDCE503200E33CDAB6A
:1061AC0034126DE6ECDE0500024B0146186800F077
:1061BC0003B800BFDCE5032037B5044608460D469E
:1061CC0000F00FF8421C114620460192FEF748FAE7
:1061DC00044618B1019A2946FFF7ACFF204603B0DC
:1061EC0030BD034613F8012B002AFBD1181A0138D5
:1061FC00704700001D400D0059400D0081400D00FE
:10620C0085400D00000000004C69676874206C65C7
:10621C0076656C3A20007B73756E6E797D007368C1
:10622C0061647900000000000000000039470D0097
:10623C003F470D008F470D004D470D003B470D00AC
:10624C000000000000000000074D0D00FD4C0D008B
:10625C00F34C0D00E94C0D00DD4C0D00D14C0D0044
:10626C00C54C0D00BD4C0D00B34C0D00A94C0D00E0
:10627C00814F0D000000000000000000254D0D00B6
:10628C006F4D0D00474D0D00274D0D004F4D0D006E
:10629C00574D0D005F4D0D00674D0D0000000000C7
:1062AC0000000000334E0D00234E0D00254E0D0056
:1062BC00617070000000000000000000194F0D001C
:1062CC00234F0D002D4F0D00374F0D00414F0D008A
:1062DC004D4F0D00594F0D00654F0D006D4F0D00CA
:1062EC00774F0D00814F0D006E616E00696E660078
:1062FC006F7666002E0025592D256D2D25645425AD
:10630C00483A254D3A2553257A0061736374696DBB
:10631C0065000000000000000000000079530D0033
:10632C00E5530D00BD530D0069500D008D530D004C
:10633C00A9530D009B530D00B7530D007B530D005B
:10634C007F530D00000000000000000079540D0088
:10635C00E1540D00B7540D0069500D00A9540D0007
:10636C007B540D008B540D00DB540D009B540D0021
:10637C0075540D000000000000000000E3550D00F6
:10638C00D9550D00CF550D0085550D00C3550D0089
:10639C00B7550D00AB550D00A3550D0099550D00CB
:1063AC008F550D00814F0D0000000000FD410D00C8
:1063BC0011470D00114D0D00094F0D0055500D00EA
:1063CC00ED520D0029530D0065530D00ED550D00D8
:0463DC0000000000BD
:0463E00000000000B9
:1063E4000100000016630D00E0E50320000000003A
:1063F4000000000000000000000000000000000099
:106404000000000000000000000000000000000088
:106414000000000000000000000000000000000078
:106424000000000000000000000000000000000068
:106434000000000000000000000000000000000058
:0C6444000000000000000000000000004C
:10645000FFFFFFFF00000102030405060708090A09
:106460000B0C0D0E0F101112131415161718191A04
:086470001B1C1D1E1F2028004B
:04647800785634120C
:04000003D000401CCD
:00000001FF
